{
  "_format": "hh-sol-artifact-1",
  "contractName": "Tombola",
  "sourceName": "contracts/tombola.sol",
  "abi": [
    {
      "inputs": [
        {
          "internalType": "string",
          "name": "_name",
          "type": "string"
        },
        {
          "internalType": "uint256",
          "name": "_startDate",
          "type": "uint256"
        }
      ],
      "stateMutability": "nonpayable",
      "type": "constructor"
    },
    {
      "anonymous": false,
      "inputs": [
        {
          "indexed": true,
          "internalType": "address",
          "name": "_address",
          "type": "address"
        }
      ],
      "name": "LogAddress",
      "type": "event"
    },
    {
      "inputs": [
        {
          "internalType": "uint256",
          "name": "",
          "type": "uint256"
        }
      ],
      "name": "addresses",
      "outputs": [
        {
          "internalType": "address",
          "name": "",
          "type": "address"
        }
      ],
      "stateMutability": "view",
      "type": "function"
    },
    {
      "inputs": [],
      "name": "buyTicket",
      "outputs": [],
      "stateMutability": "payable",
      "type": "function"
    },
    {
      "inputs": [],
      "name": "commission",
      "outputs": [
        {
          "internalType": "uint256",
          "name": "",
          "type": "uint256"
        }
      ],
      "stateMutability": "view",
      "type": "function"
    },
    {
      "inputs": [],
      "name": "firstPlace",
      "outputs": [
        {
          "internalType": "address",
          "name": "",
          "type": "address"
        }
      ],
      "stateMutability": "view",
      "type": "function"
    },
    {
      "inputs": [],
      "name": "getAddressLength",
      "outputs": [
        {
          "internalType": "uint256",
          "name": "",
          "type": "uint256"
        }
      ],
      "stateMutability": "view",
      "type": "function"
    },
    {
      "inputs": [],
      "name": "getAllParticipantsAddress",
      "outputs": [
        {
          "internalType": "address[]",
          "name": "",
          "type": "address[]"
        }
      ],
      "stateMutability": "view",
      "type": "function"
    },
    {
      "inputs": [],
      "name": "getSecondPlaceAmount",
      "outputs": [
        {
          "internalType": "uint256",
          "name": "",
          "type": "uint256"
        }
      ],
      "stateMutability": "view",
      "type": "function"
    },
    {
      "inputs": [],
      "name": "getSetSecondAndFirst",
      "outputs": [],
      "stateMutability": "nonpayable",
      "type": "function"
    },
    {
      "inputs": [],
      "name": "getTotalPrize",
      "outputs": [
        {
          "internalType": "uint256",
          "name": "",
          "type": "uint256"
        }
      ],
      "stateMutability": "view",
      "type": "function"
    },
    {
      "inputs": [],
      "name": "getWinningAmount",
      "outputs": [
        {
          "internalType": "uint256",
          "name": "",
          "type": "uint256"
        }
      ],
      "stateMutability": "view",
      "type": "function"
    },
    {
      "inputs": [],
      "name": "name",
      "outputs": [
        {
          "internalType": "string",
          "name": "",
          "type": "string"
        }
      ],
      "stateMutability": "view",
      "type": "function"
    },
    {
      "inputs": [],
      "name": "owner",
      "outputs": [
        {
          "internalType": "address",
          "name": "",
          "type": "address"
        }
      ],
      "stateMutability": "view",
      "type": "function"
    },
    {
      "inputs": [
        {
          "internalType": "address",
          "name": "",
          "type": "address"
        }
      ],
      "name": "participants",
      "outputs": [
        {
          "internalType": "bool",
          "name": "owns",
          "type": "bool"
        },
        {
          "internalType": "uint256",
          "name": "tickets",
          "type": "uint256"
        }
      ],
      "stateMutability": "view",
      "type": "function"
    },
    {
      "inputs": [
        {
          "internalType": "address",
          "name": "_address",
          "type": "address"
        }
      ],
      "name": "printAddress",
      "outputs": [],
      "stateMutability": "nonpayable",
      "type": "function"
    },
    {
      "inputs": [],
      "name": "secondPlace",
      "outputs": [
        {
          "internalType": "address",
          "name": "",
          "type": "address"
        }
      ],
      "stateMutability": "view",
      "type": "function"
    },
    {
      "inputs": [],
      "name": "secondPlaceAmount",
      "outputs": [
        {
          "internalType": "uint256",
          "name": "",
          "type": "uint256"
        }
      ],
      "stateMutability": "view",
      "type": "function"
    },
    {
      "inputs": [
        {
          "internalType": "uint256",
          "name": "range",
          "type": "uint256"
        },
        {
          "internalType": "uint256",
          "name": "i",
          "type": "uint256"
        }
      ],
      "name": "setRandomIndex",
      "outputs": [
        {
          "internalType": "uint256",
          "name": "",
          "type": "uint256"
        }
      ],
      "stateMutability": "nonpayable",
      "type": "function"
    },
    {
      "inputs": [],
      "name": "setTotalPrize",
      "outputs": [
        {
          "internalType": "uint256",
          "name": "",
          "type": "uint256"
        }
      ],
      "stateMutability": "nonpayable",
      "type": "function"
    },
    {
      "inputs": [],
      "name": "startDate",
      "outputs": [
        {
          "internalType": "uint256",
          "name": "",
          "type": "uint256"
        }
      ],
      "stateMutability": "view",
      "type": "function"
    },
    {
      "inputs": [],
      "name": "startTombola",
      "outputs": [],
      "stateMutability": "nonpayable",
      "type": "function"
    },
    {
      "inputs": [],
      "name": "ticketPrice",
      "outputs": [
        {
          "internalType": "uint256",
          "name": "",
          "type": "uint256"
        }
      ],
      "stateMutability": "view",
      "type": "function"
    },
    {
      "inputs": [],
      "name": "totalPrize",
      "outputs": [
        {
          "internalType": "uint256",
          "name": "",
          "type": "uint256"
        }
      ],
      "stateMutability": "view",
      "type": "function"
    },
    {
      "inputs": [],
      "name": "winningAmount",
      "outputs": [
        {
          "internalType": "uint256",
          "name": "",
          "type": "uint256"
        }
      ],
      "stateMutability": "view",
      "type": "function"
    },
    {
      "inputs": [],
      "name": "withdrawComission",
      "outputs": [],
      "stateMutability": "nonpayable",
      "type": "function"
    }
  ],
  "bytecode": "0x60806040523480156200001157600080fd5b50604051620021f9380380620021f983398181016040528101906200003791906200027d565b336000806101000a81548173ffffffffffffffffffffffffffffffffffffffff021916908373ffffffffffffffffffffffffffffffffffffffff160217905550816001908162000088919062000524565b5080600281905550670de0b6b3a7640000600581905550600560038190555050506200060b565b6000604051905090565b600080fd5b600080fd5b600080fd5b600080fd5b6000601f19601f8301169050919050565b7f4e487b7100000000000000000000000000000000000000000000000000000000600052604160045260246000fd5b6200011882620000cd565b810181811067ffffffffffffffff821117156200013a5762000139620000de565b5b80604052505050565b60006200014f620000af565b90506200015d82826200010d565b919050565b600067ffffffffffffffff82111562000180576200017f620000de565b5b6200018b82620000cd565b9050602081019050919050565b60005b83811015620001b85780820151818401526020810190506200019b565b60008484015250505050565b6000620001db620001d58462000162565b62000143565b905082815260208101848484011115620001fa57620001f9620000c8565b5b6200020784828562000198565b509392505050565b600082601f830112620002275762000226620000c3565b5b815162000239848260208601620001c4565b91505092915050565b6000819050919050565b620002578162000242565b81146200026357600080fd5b50565b60008151905062000277816200024c565b92915050565b60008060408385031215620002975762000296620000b9565b5b600083015167ffffffffffffffff811115620002b857620002b7620000be565b5b620002c6858286016200020f565b9250506020620002d98582860162000266565b9150509250929050565b600081519050919050565b7f4e487b7100000000000000000000000000000000000000000000000000000000600052602260045260246000fd5b600060028204905060018216806200033657607f821691505b6020821081036200034c576200034b620002ee565b5b50919050565b60008190508160005260206000209050919050565b60006020601f8301049050919050565b600082821b905092915050565b600060088302620003b67fffffffffffffffffffffffffffffffffffffffffffffffffffffffffffffffff8262000377565b620003c2868362000377565b95508019841693508086168417925050509392505050565b6000819050919050565b600062000405620003ff620003f98462000242565b620003da565b62000242565b9050919050565b6000819050919050565b6200042183620003e4565b6200043962000430826200040c565b84845462000384565b825550505050565b600090565b6200045062000441565b6200045d81848462000416565b505050565b5b8181101562000485576200047960008262000446565b60018101905062000463565b5050565b601f821115620004d4576200049e8162000352565b620004a98462000367565b81016020851015620004b9578190505b620004d1620004c88562000367565b83018262000462565b50505b505050565b600082821c905092915050565b6000620004f960001984600802620004d9565b1980831691505092915050565b6000620005148383620004e6565b9150826002028217905092915050565b6200052f82620002e3565b67ffffffffffffffff8111156200054b576200054a620000de565b5b6200055782546200031d565b6200056482828562000489565b600060209050601f8311600181146200059c576000841562000587578287015190505b62000593858262000506565b86555062000603565b601f198416620005ac8662000352565b60005b82811015620005d657848901518255600182019150602085019450602081019050620005af565b86831015620005f65784890151620005f2601f891682620004e6565b8355505b6001600288020188555050505b505050505050565b611bde806200061b6000396000f3fe60806040526004361061014b5760003560e01c80637cf0cf70116100b6578063bf7165e91161006f578063bf7165e91461042b578063d72f4f5e14610456578063e148919114610493578063edca914c146104be578063edf26d9b146104c8578063f6637d6c146105055761014b565b80637cf0cf701461033d57806382b1ad50146103545780638da5cb5b1461037f57806398f22c12146103aa578063adeaa851146103d5578063b744721f146104005761014b565b80634c62a644116101085780634c62a644146102655780635338b9f91461027c5780636193817f146102a55780636dad2a91146102bc5780636fccb22b146102e75780637112dd5f146103125761014b565b806306fdde031461015057806309e69ede1461017b5780630b97bc86146101b95780631209b1f6146101e457806332d118281461020f5780633b3672bd1461023a575b600080fd5b34801561015c57600080fd5b50610165610530565b6040516101729190611248565b60405180910390f35b34801561018757600080fd5b506101a2600480360381019061019d91906112cd565b6105be565b6040516101b092919061132e565b60405180910390f35b3480156101c557600080fd5b506101ce6105ef565b6040516101db9190611357565b60405180910390f35b3480156101f057600080fd5b506101f96105f5565b6040516102069190611357565b60405180910390f35b34801561021b57600080fd5b506102246105fb565b6040516102319190611357565b60405180910390f35b34801561024657600080fd5b5061024f61061e565b60405161025c9190611357565b60405180910390f35b34801561027157600080fd5b5061027a61062b565b005b34801561028857600080fd5b506102a3600480360381019061029e91906112cd565b610771565b005b3480156102b157600080fd5b506102ba6107b7565b005b3480156102c857600080fd5b506102d1610c55565b6040516102de9190611357565b60405180910390f35b3480156102f357600080fd5b506102fc610c77565b6040516103099190611381565b60405180910390f35b34801561031e57600080fd5b50610327610c9d565b6040516103349190611357565b60405180910390f35b34801561034957600080fd5b50610352610ca3565b005b34801561036057600080fd5b50610369610dc1565b6040516103769190611357565b60405180910390f35b34801561038b57600080fd5b50610394610dc7565b6040516103a19190611381565b60405180910390f35b3480156103b657600080fd5b506103bf610deb565b6040516103cc9190611357565b60405180910390f35b3480156103e157600080fd5b506103ea610df1565b6040516103f79190611357565b60405180910390f35b34801561040c57600080fd5b50610415610dfb565b6040516104229190611381565b60405180910390f35b34801561043757600080fd5b50610440610e21565b60405161044d919061145a565b60405180910390f35b34801561046257600080fd5b5061047d600480360381019061047891906114a8565b610eaf565b60405161048a9190611357565b60405180910390f35b34801561049f57600080fd5b506104a8610f02565b6040516104b59190611357565b60405180910390f35b6104c6610f08565b005b3480156104d457600080fd5b506104ef60048036038101906104ea91906114e8565b611157565b6040516104fc9190611381565b60405180910390f35b34801561051157600080fd5b5061051a611196565b6040516105279190611357565b60405180910390f35b6001805461053d90611544565b80601f016020809104026020016040519081016040528092919081815260200182805461056990611544565b80156105b65780601f1061058b576101008083540402835291602001916105b6565b820191906000526020600020905b81548152906001019060200180831161059957829003601f168201915b505050505081565b600a6020528060005260406000206000915090508060000160009054906101000a900460ff16908060010154905082565b60025481565b60055481565b6000600554600b8054905061061091906115a4565b600481905550600454905090565b6000600b80549050905090565b60008054906101000a900473ffffffffffffffffffffffffffffffffffffffff1673ffffffffffffffffffffffffffffffffffffffff163373ffffffffffffffffffffffffffffffffffffffff16146106b9576040517f08c379a00000000000000000000000000000000000000000000000000000000081526004016106b090611658565b60405180910390fd5b6000600354116106fe576040517f08c379a00000000000000000000000000000000000000000000000000000000081526004016106f5906116c4565b60405180910390fd5b60008054906101000a900473ffffffffffffffffffffffffffffffffffffffff1673ffffffffffffffffffffffffffffffffffffffff166108fc6003549081150290604051600060405180830381858888f19350505050158015610766573d6000803e3d6000fd5b506000600381905550565b8073ffffffffffffffffffffffffffffffffffffffff167fb123f68b8ba02b447d91a6629e121111b7dd6061ff418a60139c8bf00522a28460405160405180910390a250565b60008054906101000a900473ffffffffffffffffffffffffffffffffffffffff1673ffffffffffffffffffffffffffffffffffffffff163373ffffffffffffffffffffffffffffffffffffffff1614610845576040517f08c379a000000000000000000000000000000000000000000000000000000000815260040161083c90611658565b60405180910390fd5b60025442101561088a576040517f08c379a000000000000000000000000000000000000000000000000000000000815260040161088190611730565b60405180910390fd5b6000600454116108cf576040517f08c379a00000000000000000000000000000000000000000000000000000000081526004016108c6906117c2565b60405180910390fd5b6000600b8054905090506000811161091c576040517f08c379a00000000000000000000000000000000000000000000000000000000081526004016109139061182e565b60405180910390fd5b60646046610928610df1565b61093291906115a4565b61093c919061187d565b6006819055506064601961094e610df1565b61095891906115a4565b610962919061187d565b600781905550600754600654610976610df1565b61098091906118ae565b61098a91906118ae565b6003819055506000600b6109a4600b805490506000610eaf565b815481106109b5576109b46118e2565b5b9060005260206000200160009054906101000a900473ffffffffffffffffffffffffffffffffffffffff1690506109eb81610771565b6000600b6109ff600b805490506000610eaf565b81548110610a1057610a0f6118e2565b5b9060005260206000200160009054906101000a900473ffffffffffffffffffffffffffffffffffffffff1690505b8073ffffffffffffffffffffffffffffffffffffffff168273ffffffffffffffffffffffffffffffffffffffff1603610ae2576000600b610a90600b80549050600184610a8b9190611911565b610eaf565b81548110610aa157610aa06118e2565b5b9060005260206000200160009054906101000a900473ffffffffffffffffffffffffffffffffffffffff1691508080610ad990611945565b91505050610a3e565b610aeb81610771565b8173ffffffffffffffffffffffffffffffffffffffff166108fc6006549081150290604051600060405180830381858888f19350505050158015610b33573d6000803e3d6000fd5b508073ffffffffffffffffffffffffffffffffffffffff166108fc6007549081150290604051600060405180830381858888f19350505050158015610b7c573d6000803e3d6000fd5b5060006004819055506000600681905550600060078190555060005b83811015610c4f57600a6000600b8381548110610bb857610bb76118e2565b5b9060005260206000200160009054906101000a900473ffffffffffffffffffffffffffffffffffffffff1673ffffffffffffffffffffffffffffffffffffffff1673ffffffffffffffffffffffffffffffffffffffff168152602001908152602001600020600080820160006101000a81549060ff0219169055600182016000905550508080610c4790611945565b915050610b98565b50505050565b600060646046600454610c6891906115a4565b610c72919061187d565b905090565b600960009054906101000a900473ffffffffffffffffffffffffffffffffffffffff1681565b60075481565b600b610cb5600b805490506000610eaf565b81548110610cc657610cc56118e2565b5b9060005260206000200160009054906101000a900473ffffffffffffffffffffffffffffffffffffffff16600860006101000a81548173ffffffffffffffffffffffffffffffffffffffff021916908373ffffffffffffffffffffffffffffffffffffffff160217905550600b610d43600b805490506000610eaf565b81548110610d5457610d536118e2565b5b9060005260206000200160009054906101000a900473ffffffffffffffffffffffffffffffffffffffff16600960006101000a81548173ffffffffffffffffffffffffffffffffffffffff021916908373ffffffffffffffffffffffffffffffffffffffff160217905550565b60045481565b60008054906101000a900473ffffffffffffffffffffffffffffffffffffffff1681565b60065481565b6000600454905090565b600860009054906101000a900473ffffffffffffffffffffffffffffffffffffffff1681565b6060600b805480602002602001604051908101604052809291908181526020018280548015610ea557602002820191906000526020600020905b8160009054906101000a900473ffffffffffffffffffffffffffffffffffffffff1673ffffffffffffffffffffffffffffffffffffffff1681526020019060010190808311610e5b575b5050505050905090565b600080838342610ebf9190611911565b4433604051602001610ed3939291906119f6565b6040516020818303038152906040528051906020012060001c610ef69190611a33565b90508091505092915050565b60035481565b6002544210610f4c576040517f08c379a0000000000000000000000000000000000000000000000000000000008152600401610f4390611ab0565b60405180910390fd5b60001515600a60003373ffffffffffffffffffffffffffffffffffffffff1673ffffffffffffffffffffffffffffffffffffffff16815260200190815260200160002060000160009054906101000a900460ff16151514610fe2576040517f08c379a0000000000000000000000000000000000000000000000000000000008152600401610fd990611b1c565b60405180910390fd5b6005543414611026576040517f08c379a000000000000000000000000000000000000000000000000000000000815260040161101d90611b88565b60405180910390fd5b600b339080600181540180825580915050600190039060005260206000200160009091909190916101000a81548173ffffffffffffffffffffffffffffffffffffffff021916908373ffffffffffffffffffffffffffffffffffffffff1602179055506001600a60003373ffffffffffffffffffffffffffffffffffffffff1673ffffffffffffffffffffffffffffffffffffffff16815260200190815260200160002060000160006101000a81548160ff021916908315150217905550600a60003373ffffffffffffffffffffffffffffffffffffffff1673ffffffffffffffffffffffffffffffffffffffff168152602001908152602001600020600101600081548092919061113790611945565b9190505550600554600b8054905061114f91906115a4565b600481905550565b600b818154811061116757600080fd5b906000526020600020016000915054906101000a900473ffffffffffffffffffffffffffffffffffffffff1681565b6000606460196004546111a991906115a4565b6111b3919061187d565b905090565b600081519050919050565b600082825260208201905092915050565b60005b838110156111f25780820151818401526020810190506111d7565b60008484015250505050565b6000601f19601f8301169050919050565b600061121a826111b8565b61122481856111c3565b93506112348185602086016111d4565b61123d816111fe565b840191505092915050565b60006020820190508181036000830152611262818461120f565b905092915050565b600080fd5b600073ffffffffffffffffffffffffffffffffffffffff82169050919050565b600061129a8261126f565b9050919050565b6112aa8161128f565b81146112b557600080fd5b50565b6000813590506112c7816112a1565b92915050565b6000602082840312156112e3576112e261126a565b5b60006112f1848285016112b8565b91505092915050565b60008115159050919050565b61130f816112fa565b82525050565b6000819050919050565b61132881611315565b82525050565b60006040820190506113436000830185611306565b611350602083018461131f565b9392505050565b600060208201905061136c600083018461131f565b92915050565b61137b8161128f565b82525050565b60006020820190506113966000830184611372565b92915050565b600081519050919050565b600082825260208201905092915050565b6000819050602082019050919050565b6113d18161128f565b82525050565b60006113e383836113c8565b60208301905092915050565b6000602082019050919050565b60006114078261139c565b61141181856113a7565b935061141c836113b8565b8060005b8381101561144d57815161143488826113d7565b975061143f836113ef565b925050600181019050611420565b5085935050505092915050565b6000602082019050818103600083015261147481846113fc565b905092915050565b61148581611315565b811461149057600080fd5b50565b6000813590506114a28161147c565b92915050565b600080604083850312156114bf576114be61126a565b5b60006114cd85828601611493565b92505060206114de85828601611493565b9150509250929050565b6000602082840312156114fe576114fd61126a565b5b600061150c84828501611493565b91505092915050565b7f4e487b7100000000000000000000000000000000000000000000000000000000600052602260045260246000fd5b6000600282049050600182168061155c57607f821691505b60208210810361156f5761156e611515565b5b50919050565b7f4e487b7100000000000000000000000000000000000000000000000000000000600052601160045260246000fd5b60006115af82611315565b91506115ba83611315565b92508282026115c881611315565b915082820484148315176115df576115de611575565b5b5092915050565b7f4f6e6c79207468652061646d696e2063616e2063616c6c207468652066756e6360008201527f74696f6e00000000000000000000000000000000000000000000000000000000602082015250565b60006116426024836111c3565b915061164d826115e6565b604082019050919050565b6000602082019050818103600083015261167181611635565b9050919050565b7f4e6f20636f6d697373696f6e20617661696c61626c6500000000000000000000600082015250565b60006116ae6016836111c3565b91506116b982611678565b602082019050919050565b600060208201905081810360008301526116dd816116a1565b9050919050565b7f546f6d626f6c61206e75206120696e6365707574000000000000000000000000600082015250565b600061171a6014836111c3565b9150611725826116e4565b602082019050919050565b600060208201905081810360008301526117498161170d565b9050919050565b7f4e6f207061727469636970616e7473206f72207072697a6520617661696c616260008201527f6c65000000000000000000000000000000000000000000000000000000000000602082015250565b60006117ac6022836111c3565b91506117b782611750565b604082019050919050565b600060208201905081810360008301526117db8161179f565b9050919050565b7f4e75206176656d207061727469636970616e7469000000000000000000000000600082015250565b60006118186014836111c3565b9150611823826117e2565b602082019050919050565b600060208201905081810360008301526118478161180b565b9050919050565b7f4e487b7100000000000000000000000000000000000000000000000000000000600052601260045260246000fd5b600061188882611315565b915061189383611315565b9250826118a3576118a261184e565b5b828204905092915050565b60006118b982611315565b91506118c483611315565b92508282039050818111156118dc576118db611575565b5b92915050565b7f4e487b7100000000000000000000000000000000000000000000000000000000600052603260045260246000fd5b600061191c82611315565b915061192783611315565b925082820190508082111561193f5761193e611575565b5b92915050565b600061195082611315565b91507fffffffffffffffffffffffffffffffffffffffffffffffffffffffffffffffff820361198257611981611575565b5b600182019050919050565b6000819050919050565b6119a86119a382611315565b61198d565b82525050565b60008160601b9050919050565b60006119c6826119ae565b9050919050565b60006119d8826119bb565b9050919050565b6119f06119eb8261128f565b6119cd565b82525050565b6000611a028286611997565b602082019150611a128285611997565b602082019150611a2282846119df565b601482019150819050949350505050565b6000611a3e82611315565b9150611a4983611315565b925082611a5957611a5861184e565b5b828206905092915050565b7f546f6d626f6c612068617320616c726561647920737461727465640000000000600082015250565b6000611a9a601b836111c3565b9150611aa582611a64565b602082019050919050565b60006020820190508181036000830152611ac981611a8d565b9050919050565b7f4d6178696d756d207469636b6574732070657220616464726573732069732031600082015250565b6000611b066020836111c3565b9150611b1182611ad0565b602082019050919050565b60006020820190508181036000830152611b3581611af9565b9050919050565b7f496e636f7272656374207469636b657420707269636500000000000000000000600082015250565b6000611b726016836111c3565b9150611b7d82611b3c565b602082019050919050565b60006020820190508181036000830152611ba181611b65565b905091905056fea26469706673582212206ae69fa6feddacf129652f20a05108dfdfedce7b0133d16246cbdd03cd6a7bf864736f6c63430008120033",
  "linkReferences": {},
  "deployedLinkReferences": {}
}